:100000000C9462000C948A000C948A000C948A0070
:100010000C948A000C948A000C948A000C948A0038
:100020000C948A000C948A000C948A000C948A0028
:100030000C948A000C948A000C948A000C948A0018
:100040000C943A030C948A000C94AA030C94840335
:100050000C948A000C948A000C948A000C948A00F8
:100060000C948A000C948A000000000024002700F1
:100070002A0000000000250028002B0000000000DE
:1000800023002600290004040404040404040202DA
:100090000202020203030303030301020408102007
:1000A0004080010204081020010204081020000012
:1000B0000008000201000003040700000000000027
:1000C0000000010611241FBECFEFD8E0DEBFCDBF78
:1000D00011E0A0E0B1E0E2E3F2E102C005900D9290
:1000E000A033B107D9F721E0A0E3B1E001C01D9230
:1000F000AC3DB207E1F710E0C2E6D0E004C02197C2
:10010000FE010E94EC07C136D107C9F70E94DC034B
:100110000C9417090C940000833081F028F481308E
:1001200099F08230A9F008958730A9F08830C9F09D
:100130008430B1F4809180008F7D03C08091800075
:100140008F7780938000089584B58F7784BD08955C
:1001500084B58F7DFBCF8091B0008F778093B00006
:1001600008958091B0008F7DF9CFCF93DF93282F32
:1001700030E0F901E255FF4F8491F901E656FF4F57
:10018000D491F901EA57FF4FC491CC23A1F081111A
:100190000E948C00EC2FF0E0EE0FFF1FE458FF4FA1
:1001A000A591B491EC91ED2381E090E009F480E019
:1001B000DF91CF91089580E090E0FACF1F93CF9325
:1001C000DF93282F30E0F901E255FF4F8491F901C8
:1001D000E656FF4FD491F901EA57FF4FC491CC2363
:1001E000A9F0162F81110E948C00EC2FF0E0EE0F89
:1001F000FF1FEE58FF4FA591B4918FB7F894EC9183
:10020000111108C0D095DE23DC938FBFDF91CF9111
:100210001F910895DE2BF8CFCF93DF9390E0FC0180
:10022000E656FF4F24918A579F4FFC018491882303
:10023000D1F090E0880F991FFC01E859FF4FA5917C
:10024000B491FC01EE58FF4FC591D49161110EC0DD
:100250009FB7F8948C91E22FE0958E238C932881A0
:10026000E223E8839FBFDF91CF9108958FB7F89481
:10027000EC91E22BEC938FBFF6CF1F93CF93DF93DC
:10028000182FEB0161E00E940C01209739F460E027
:10029000812FDF91CF911F910C94DE00CF3FD105CC
:1002A00011F461E0F5CFE12FF0E0E255FF4FE4916A
:1002B000E33031F140F4E130B1F0E230E1F0C03848
:1002C000D1057CF7E4CFE73029F1E83059F1E4308B
:1002D000B1F780918000806280938000D0938B0082
:1002E000C0938A0004C084B5806884BDC7BDDF9117
:1002F000CF911F91089584B5806284BDC8BDF7CFAA
:1003000080918000806880938000D0938900C093A2
:100310008800EDCF8091B00080688093B000C093DA
:10032000B300E5CF8091B00080628093B000C093AD
:10033000B400DDCF3FB7F894809137019091380138
:10034000A0913901B0913A0126B5A89B05C02F3F75
:1003500019F00196A11DB11D3FBFBA2FA92F982FEB
:100360008827BC01CD01620F711D811D911D42E0E6
:10037000660F771F881F991F4A95D1F708958F92AE
:100380009F92AF92BF92CF92DF92EF92FF924B017A
:100390005C010E949A016B017C010E949A016C1918
:1003A0007D098E099F09683E734081059105A8F378
:1003B00021E0821A9108A108B10888EEC80E83E0F6
:1003C000D81EE11CF11C81149104A104B10429F789
:1003D000FF90EF90DF90CF90BF90AF909F908F9065
:1003E0000895AF92BF92CF92DF92EF92FF920F9358
:1003F0001F93CF93DF936C017B018B01040F151FBB
:10040000EB015E01AE18BF08C017D10759F0699122
:10041000D601ED91FC910190F081E02DC601099586
:10042000892B79F7C501DF91CF911F910F91FF9033
:10043000EF90DF90CF90BF90AF900895FC01538D67
:10044000448D252F30E0842F90E0821B930B5417AE
:1004500010F0CF96089501970895FC01918D828D3B
:10046000981761F0A28DAE0FBF2FB11D5D968C91D4
:10047000928D9F5F9F73928F90E008958FEF9FEF13
:100480000895FC01918D828D981731F0828DE80FCF
:10049000F11D858D90E008958FEF9FEF0895FC0189
:1004A000918D228D892F90E0805C9F4F821B910956
:1004B0008F73992708958BE391E00E944F0221E00A
:1004C000892B09F420E0822F089580E090E0892BA9
:1004D00029F00E945B0281110C9400000895FC0138
:1004E000A48DA80FB92FB11DA35ABF4F2C91848D95
:1004F00090E001968F739927848FA689B7892C93F2
:10050000A089B1898C91837080648C93938D848D44
:10051000981306C00288F389E02D80818F7D808347
:100520000895EF92FF920F931F93CF93DF93EC0107
:1005300081E0888F9B8D8C8D98131AC0E889F9898A
:10054000808185FF15C09FB7F894EE89FF8960838D
:10055000E889F98980818370806480839FBF81E00E
:1005600090E0DF91CF911F910F91FF90EF90089550
:10057000F62E0B8D10E00F5F1F4F0F731127E02E2B
:100580008C8D8E110CC00FB607FCFACFE889F98963
:10059000808185FFF5CFCE010E946F02F1CFEB8DF8
:1005A000EC0FFD2FF11DE35AFF4FF0829FB7F89437
:1005B0000B8FEA89FB8980818062CFCFCF93DF9355
:1005C000EC01888D8823B9F0AA89BB89E889F9896B
:1005D0008C9185FD03C0808186FD0DC00FB607FCA0
:1005E000F7CF8C9185FFF2CF808185FFEDCFCE01D3
:1005F0000E946F02E9CFDF91CF910895CF93DF93EF
:10060000EC0160E089810E94DE0060E08A810E9446
:10061000DE006B8170E088810E943D0181E090E006
:100620009F838E838D83DF91CF910895CF93DF9346
:10063000EC0161E089810E94DE0060E08A810E9415
:10064000DE006B8170E088810E943D011F821E8266
:1006500081E08D83DF91CF910895FC01019000200E
:10066000E9F73197AF01481B590BBC018BE391E0CF
:100670000C94F1011F920F920FB60F9211242F9339
:100680003F938F939F93AF93BF938091330190914A
:100690003401A0913501B09136013091320123E04F
:1006A000230F2D3758F50196A11DB11D209332015E
:1006B0008093330190933401A0933501B0933601B8
:1006C0008091370190913801A0913901B0913A01A0
:1006D0000196A11DB11D8093370190933801A0931D
:1006E0003901B0933A01BF91AF919F918F913F91A2
:1006F0002F910F900FBE0F901F90189526E8230F93
:100700000296A11DB11DD2CF1F920F920FB60F926C
:1007100011242F933F934F935F936F937F938F9306
:100720009F93AF93BF93EF93FF938BE391E00E946E
:100730006F02FF91EF91BF91AF919F918F917F9148
:100740006F915F914F913F912F910F900FBE0F903E
:100750001F9018951F920F920FB60F9211242F938E
:100760008F939F93EF93FF93E0914B01F0914C0196
:100770008081E0915101F091520182FD1BC0908176
:10078000809154018F5F8F7320915501821741F042
:10079000E0915401F0E0E55CFE4F958F80935401A9
:1007A000FF91EF919F918F912F910F900FBE0F901E
:1007B0001F9018958081F4CFCF93DF93CDB7DEB72C
:1007C000A1970FB6F894DEBF0FBECDBF789484B565
:1007D000826084BD84B5816084BD85B5826085BD3D
:1007E00085B5816085BD80916E00816080936E00CB
:1007F00010928100809181008260809381008091BD
:10080000810081608093810080918000816080936D
:1008100080008091B10084608093B1008091B0002D
:1008200081608093B00080917A00846080937A0028
:1008300080917A00826080937A0080917A00816052
:1008400080937A0080917A00806880937A00109279
:10085000C10088E090E00E94F2076C0188E090E01F
:100860000E94F2078C0183E0D8018C938CE01196F2
:100870008C93119789E012968C93129799249A94ED
:1008800013969C92139715961C921597FF24F39438
:100890001496FC921497AA24AA94BA2C1796BC9288
:1008A000AE92169761E083E00E940C0161E0F801CE
:1008B00081810E940C0161E0D80112968C910E9406
:1008C0000C01F6011183008388E090E00E94F2079A
:1008D0008C018BE0D8018C938DE011968C9311974D
:1008E00088E012968C93129713969C921397159604
:1008F0001C9215971496FC9214971796BC92AE9280
:10090000169761E08BE00E940C0161E0F8018181A3
:100910000E940C0161E0D80112968C910E940C019A
:10092000F6011383028361E086E00E940C0160E01F
:1009300087E00E940C01E0914B01F0914C0182E0B4
:100940008083E0914701F09148011082E0914901D4
:10095000F0914A018FEC808310925301E0914F0196
:10096000F091500186E08083E0914D01F0914E01BD
:10097000808180618083E0914D01F0914E01808102
:1009800088608083E0914D01F0914E018081806804
:100990008083E0914D01F0914E0180818F7D8083B5
:1009A00088E191E00E942D038DE291E00E942D03E9
:1009B000D0923101C092300193E0892E912C23E234
:1009C000C22ED12C3AE0432E512C612C712C4DE7D4
:1009D000F42E50E0A52E50E0B52E0091300110917C
:1009E00031016EE170E080E090E00E94BF0160E0C4
:1009F00086E00E94DE00C4010197F1F761E086E025
:100A00000E94DE00C6010197F1F760E086E00E94D7
:100A1000DE000E949A01D80114966D937D938D9308
:100A20009C93179787E00E94B500892B81F40E9460
:100A30009A01F8012481358146815781621B730B2D
:100A4000840B950B61327E448105910558F30E9419
:100A50009A01D80114966D937D938D939C9317976B
:100A600087E00E94B500892B81F00E949A01F8016D
:100A70002481358146815781621B730B840B950B52
:100A800061327E448105910558F30E949A01D80194
:100A900014962D913D914D915C911797621B730BAC
:100AA000840B950B693B7B408105910508F0A6C03E
:100AB0000E949A01F80124813581621B730B90E03A
:100AC00080E00E94CF0623E333E343E350E40E9437
:100AD0002E0620E030E040E05FE30E945D070E94C8
:100AE000A0069B0150E040E019A28E010F5D1F4F50
:100AF000CA01B901A30192010E94CA07605DD80131
:100B00006E938D01211531054105510589F7109727
:100B100019F0CD010E942D038DE291E00E942D037A
:100B20000091300110913101F80180819181DC0147
:100B30001396FC920280F381E02DF3820E9416034B
:100B4000F801828193810E94160360ED77E080E0D6
:100B500090E00E94BF01D8018D919C911197FC01FA
:100B6000F3821296ED91FC91F3820E94FE02D8016D
:100B700012968D919C910E94FE0260ED77E080E0DC
:100B800090E00E94BF01F80180819181DC01139601
:100B9000FC920280F381E02DF3820E94FE02F801B4
:100BA000828193810E94160360ED77E080E090E0FF
:100BB0000E94BF01D8018D919C911197FC01F38295
:100BC0001296ED91FC91F3820E941603D8011296C1
:100BD0008D919C910E94FE0260ED77E080E090E0B4
:100BE0000E94BF01A114B10409F4F7CE0E945B0278
:100BF000882309F4F2CE0E940000EFCE70E060E09E
:100C00005ECFEBE3F1E01382128288EE93E0A0E086
:100C1000B0E084839583A683B7838AE091E09183D3
:100C2000808385EC90E09587848784EC90E09787BB
:100C3000868780EC90E0918B808B81EC90E0938BA9
:100C4000828B82EC90E0958B848B86EC90E0978B86
:100C5000868B118E128E138E148E08950E9442067A
:100C60000C9423070E941C0758F00E94150740F0BF
:100C700029F45F3F29F00C940C0751110C9457078D
:100C80000C9412070E94340768F39923B1F355239B
:100C900091F3951B550BBB27AA276217730784078F
:100CA00038F09F5F5F4F220F331F441FAA1FA9F325
:100CB00035D00E2E3AF0E0E832D091505040E69513
:100CC000001CCAF72BD0FE2F29D0660F771F881F74
:100CD000BB1F261737074807AB07B0E809F0BB0B67
:100CE000802DBF01FF2793585F4F3AF09E3F51057B
:100CF00078F00C940C070C9457075F3FE4F3983E90
:100D0000D4F3869577956795B795F7959F5FC9F763
:100D1000880F911D9695879597F90895E1E0660FE4
:100D2000771F881FBB1F621773078407BA0720F05D
:100D3000621B730B840BBA0BEE1F88F7E0950895C6
:100D40000E943C0788F09F5798F0B92F9927B75118
:100D5000B0F0E1F0660F771F881F991F1AF0BA955F
:100D6000C9F714C0B13091F00E945607B1E0089560
:100D70000C945607672F782F8827B85F39F0B93F52
:100D8000CCF3869577956795B395D9F73EF4909512
:100D90008095709561957F4F8F4F9F4F0895E89490
:100DA00009C097FB3EF490958095709561957F4FB3
:100DB0008F4F9F4F9923A9F0F92F96E9BB27939561
:100DC000F695879577956795B795F111F8CFFAF471
:100DD000BB0F11F460FF1BC06F5F7F4F8F4F9F4FA2
:100DE00016C0882311F096E911C0772321F09EE800
:100DF000872F762F05C0662371F096E8862F70E066
:100E000060E02AF09A95660F771F881FDAF7880F3F
:100E10009695879597F9089597F99F6780E870E010
:100E200060E008959FEF80EC089500240A94161660
:100E3000170618060906089500240A9412161306C8
:100E4000140605060895092E0394000C11F4882356
:100E500052F0BB0F40F4BF2B11F460FF04C06F5F72
:100E60007F4F8F4F9F4F089557FD9058440F551F48
:100E700059F05F3F71F04795880F97FB991F61F01C
:100E80009F3F79F087950895121613061406551F93
:100E9000F2CF4695F1DF08C0161617061806991FFF
:100EA000F1CF86957105610508940895E894BB27F4
:100EB00066277727CB0197F908950E9470070C9455
:100EC00023070E94150738F00E941C0720F0952385
:100ED00011F00C940C070C94120711240C94570772
:100EE0000E94340770F3959FC1F3950F50E0551F92
:100EF000629FF001729FBB27F00DB11D639FAA276F
:100F0000F00DB11DAA1F649F6627B00DA11D661FBD
:100F1000829F2227B00DA11D621F739FB00DA11DDE
:100F2000621F839FA00D611D221F749F3327A00D98
:100F3000611D231F849F600D211D822F762F6A2F34
:100F400011249F5750409AF0F1F088234AF0EE0F99
:100F5000FF1FBB1F661F771F881F91505040A9F7C6
:100F60009E3F510580F00C940C070C9457075F3F8F
:100F7000E4F3983ED4F3869577956795B795F79502
:100F8000E7959F5FC1F7FE2B880F911D969587957A
:100F900097F90895A1E21A2EAA1BBB1BFD010DC0F3
:100FA000AA1FBB1FEE1FFF1FA217B307E407F50719
:100FB00020F0A21BB30BE40BF50B661F771F881FF5
:100FC000991F1A9469F760957095809590959B018B
:100FD000AC01BD01CF010895EE0FFF1F0590F49104
:100FE000E02D09940F931F93CF93DF9382309105E7
:100FF00010F482E090E0E091DA01F091DB0130E062
:1010000020E0B0E0A0E0309799F42115310509F413
:101010004AC0281B390B24303105D8F58A819B81C1
:101020006115710589F1FB0193838283FE0111C073
:10103000408151810281138148175907E0F0481718
:10104000590799F4109761F012960C931297139622
:101050001C933296CF01DF91CF911F910F9108958C
:101060000093DA011093DB01F4CF2115310551F023
:101070004217530738F0A901DB019A01BD01DF01D6
:10108000F801C1CFEF01F9CF9093DB018093DA0132
:10109000CDCFFE01E20FF31F8193919322503109CE
:1010A00039832883D7CF2091D8013091D901232BC0
:1010B00041F420910201309103013093D901209332
:1010C000D80120910001309101012115310541F431
:1010D0002DB73EB74091040150910501241B350BFB
:1010E000E091D801F091D901E217F307A0F42E1B8B
:1010F0003F0B2817390778F0AC014E5F5F4F24177C
:10110000350748F04E0F5F1F5093D9014093D80127
:10111000819391939FCFF0E0E0E09CCFCF93DF935A
:101120000097E9F0FC01329713821282A091DA0154
:10113000B091DB01ED0130E020E01097A1F42081B7
:101140003181820F931F2091D8013091D901281746
:10115000390709F061C0F093D901E093D801DF911C
:10116000CF910895EA01CE17DF07E8F54A815B8148
:101170009E0141155105B1F7E901FB83EA834991CD
:101180005991C40FD51FEC17FD0761F4808191813F
:101190000296840F951FE901998388838281938148
:1011A0009B838A83F0E0E0E012968D919C911397E7
:1011B0000097B9F52D913C911197CD010296820FC0
:1011C000931F2091D8013091D9012817390739F69A
:1011D000309751F51092DB011092DA01B093D901EA
:1011E000A093D801BCCFD383C28340815181840FA7
:1011F000951FC817D90761F44E5F5F4F88819981A9
:10120000480F591F518340838A819B819383828336
:101210002115310509F0B0CFF093DB01E093DA013D
:101220009ECFFD01DC01C0CF13821282D7CFF8948C
:02123000FFCFEE
:101232000000DC018000000000009102F1011E02AA
:10124200DE024F022D02410244656275672053653A
:101252007269616C204D6F6E69746F72000D0A00C5
:00000001FF
